:020000040800F2
:1000000000500020D59F0008A1950008AD9500087C
:10001000B3950008B9950008BF95000800000000DE
:10002000000000000000000000000000F17C00085B
:10003000C595000800000000A17E0008D1950008C9
:100040001DA000081DA000081DA000081DA000089C
:100050001DA000081DA000081DA000081DA000088C
:100060001DA000081DA000081DA000081DA000087C
:100070001DA000081DA000081DA000081DA000086C
:100080001DA000081DA000081DA000081DA000085C
:10009000E19500081DA000081DA000081DA0000893
:1000A0001DA000081DA000081DA000081DA000083C
:1000B0001DA000081DA000081DA000081DA000082C
:1000C0001DA000081DA000081DA000081DA000081C
:1000D0001DA00008F59500081DA000081DA000083F
:1000E0001DA000081DA000081DA0000800000000C1
:1000F0000000000000000000000000000000000000
:0C01000000000000000000005FF808F1A3
:1001100010B5054C237833B9044B13B10448AFF341
:1001200000800123237010BD480300200000000060
:100130009CCD000808B5034B1BB103490348AFF33E
:10014000008008BD000000004C0300209CCD00088A
:1001500081F0004102E000BF83F0004330B54FEA78
:1001600041044FEA430594EA050F08BF90EA020FE5
:100170001FBF54EA000C55EA020C7FEA645C7FEA78
:10018000655C00F0E2804FEA5454D4EB5555B8BF9B
:100190006D420CDD2C4480EA020281EA030382EA0C
:1001A000000083EA010180EA020281EA0303362D9E
:1001B00088BF30BD11F0004F4FEA01314FF4801C71
:1001C0004CEA113102D0404261EB410113F0004F83
:1001D0004FEA03334CEA133302D0524263EB43033A
:1001E00094EA050F00F0A780A4F10104D5F1200ED8
:1001F0000DDB02FA0EFC22FA05F2801841F1000133
:1002000003FA0EF2801843FA05F359410EE0A5F106
:1002100020050EF1200E012A03FA0EFC28BF4CF037
:10022000020C43FA05F3C01851EBE37101F00045ED
:1002300007D54FF0000EDCF1000C7EEB00006EEBFA
:100240000101B1F5801F1BD3B1F5001F0CD3490884
:100250005FEA30004FEA3C0C04F101044FEA4452DB
:1002600012F5800F80F09A80BCF1004F08BF5FEA62
:10027000500C50F1000041EB045141EA050130BD42
:100280005FEA4C0C404141EB010111F4801FA4F1E5
:100290000104E9D191F0000F04BF01460020B1FA3A
:1002A00081F308BF2033A3F10B03B3F120020CDA72
:1002B0000C3208DD02F1140CC2F10C0201FA0CF050
:1002C00021FA02F10CE002F11402D8BFC2F1200CB5
:1002D00001FA02F120FA0CFCDCBF41EA0C0190406B
:1002E000E41AA2BF01EB0451294330BD6FEA0404B4
:1002F0001F3C1CDA0C340EDC04F11404C4F120029F
:1003000020FA04F001FA02F340EA030021FA04F3B0
:1003100045EA030130BDC4F10C04C4F1200220FA07
:1003200002F001FA04F340EA0300294630BD21FA45
:1003300004F0294630BD94F0000F83F4801306BF0B
:1003400081F480110134013D4EE77FEA645C18BFFF
:100350007FEA655C29D094EA050F08BF90EA020F96
:1003600005D054EA000C04BF1946104630BD91EA8E
:10037000030F1EBF0021002030BD5FEA545C05D191
:100380004000494128BF41F0004130BD14F58004D0
:100390003CBF01F5801130BD01F0004545F0FE4144
:1003A00041F470014FF0000030BD7FEA645C1ABF79
:1003B000194610467FEA655C1CBF0B46024650EAB0
:1003C000013406BF52EA033591EA030F41F40021DC
:1003D00030BD00BF90F0000F04BF0021704730B562
:1003E0004FF4806404F132044FF000054FF0000137
:1003F00050E700BF90F0000F04BF0021704730B5F8
:100400004FF4806404F1320410F0004548BF4042CC
:100410004FF000013EE700BF42004FEAE2014FEA21
:1004200031014FEA02701FBF12F07F4393F07F4FFC
:1004300081F06051704732F07F4208BF704793F0FF
:100440007F4F04BF41F40021704730B54FF4607412
:1004500001F0004521F000411CE700BF50EA010215
:1004600008BF704730B54FF000050AE050EA0102BE
:1004700008BF704730B511F0004502D5404261EB2E
:1004800041014FF4806404F132045FEA915C3FF46F
:10049000D8AE4FF003025FEADC0C18BF03325FEA0C
:1004A000DC0C18BF033202EBDC02C2F1200300FABD
:1004B00003FC20FA02F001FA03FE40EA0E0021FAE2
:1004C00002F11444BDE600BF70B54FF0FF0C4CF4D0
:1004D000E06C1CEA11541DBF1CEA135594EA0C0F82
:1004E00095EA0C0F00F0DEF82C4481EA030621EABD
:1004F0004C5123EA4C5350EA013518BF52EA0335F8
:1005000041F4801143F4801338D0A0FB02CE4FF0A9
:100510000005E1FB02E506F00042E0FB03E54FF0D9
:100520000006E1FB03569CF0000F18BF4EF0010ED1
:10053000A4F1FF04B6F5007F64F5407404D25FEACD
:100540004E0E6D4146EB060642EAC62141EA555180
:100550004FEAC52040EA5E504FEACE2EB4F1FD0CC2
:1005600088BFBCF5E06F1ED8BEF1004F08BF5FEA40
:10057000500E50F1000041EB045170BD06F00046F2
:1005800046EA010140EA020081EA0301B4EB5C049F
:10059000C2BFD4EB0C0541EA045170BD41F4801197
:1005A0004FF0000E013C00F3AB8014F1360FDEBFBC
:1005B000002001F0004170BDC4F10004203C35DA98
:1005C0000C341BDC04F11404C4F1200500FA05F31B
:1005D00020FA04F001FA05F240EA020001F00042BC
:1005E00021F0004110EBD37021FA04F642EB060132
:1005F0005EEA430E08BF20EAD37070BDC4F10C045C
:10060000C4F1200500FA04F320FA05F001FA04F21F
:1006100040EA020001F0004110EBD37041F100010B
:100620005EEA430E08BF20EAD37070BDC4F1200516
:1006300000FA05F24EEA020E20FA04F301FA05F27E
:1006400043EA020321FA04F001F0004121FA04F226
:1006500020EA020000EBD3705EEA430E08BF20EAF6
:10066000D37070BD94F0000F0FD101F00046400030
:1006700041EB010111F4801F08BF013CF7D041EAB2
:10068000060195F0000F18BF704703F000465200B6
:1006900043EB030313F4801F08BF013DF7D043EA87
:1006A0000603704794EA0C0F0CEA135518BF95EA3D
:1006B0000C0F0CD050EA410618BF52EA4306D1D1C4
:1006C00081EA030101F000414FF0000070BD50EAE3
:1006D000410606BF1046194652EA430619D094EA6D
:1006E0000C0F02D150EA013613D195EA0C0F05D157
:1006F00052EA03361CBF104619460AD181EA0301AB
:1007000001F0004141F0FE4141F470014FF0000062
:1007100070BD41F0FE4141F4780170BD70B54FF0FD
:10072000FF0C4CF4E06C1CEA11541DBF1CEA13557D
:1007300094EA0C0F95EA0C0F00F0A7F8A4EB05045F
:1007400081EA030E52EA03354FEA013100F0888056
:100750004FEA03334FF0805545EA131343EA12631F
:100760004FEA022245EA111545EA10654FEA0026D4
:100770000EF000419D4208BF964244F1FD0404F58D
:10078000407402D25B084FEA3202B61A65EB0305E9
:100790005B084FEA32024FF480104FF4002CB6EBA6
:1007A000020E75EB030E22BFB61A754640EA0C0026
:1007B0005B084FEA3202B6EB020E75EB030E22BF66
:1007C000B61A754640EA5C005B084FEA3202B6EBA7
:1007D000020E75EB030E22BFB61A754640EA9C0066
:1007E0005B084FEA3202B6EB020E75EB030E22BF36
:1007F000B61A754640EADC0055EA060E18D04FEAF4
:10080000051545EA16754FEA06164FEAC30343EA93
:1008100052734FEAC2025FEA1C1CC0D111F4801F60
:100820000BD141EA00014FF000004FF0004CB6E759
:1008300011F4801F04BF01430020B4F1FD0C88BFF8
:10084000BCF5E06F3FF6AFAEB5EB030C04BFB6EB03
:10085000020C5FEA500C50F1000041EB045170BDF6
:100860000EF0004E4EEA113114EB5C04C2BFD4EB23
:100870000C0541EA045170BD41F480114FF0000EA7
:10088000013C90E645EA060E8DE60CEA135594EA23
:100890000C0F08BF95EA0C0F3FF43BAF94EA0C0F26
:1008A0000AD150EA01347FF434AF95EA0C0F7FF49B
:1008B00025AF104619462CE795EA0C0F06D152EAEF
:1008C00003353FF4FDAE1046194622E750EA4106D3
:1008D00018BF52EA43067FF4C5AE50EA41047FF4E4
:1008E0000DAF52EA43057FF4EBAE12E74FF0FF3C49
:1008F00006E000BF4FF0010C02E000BF4FF0010C1A
:100900004DF804CD4FEA410C7FEA6C5C4FEA430C92
:1009100018BF7FEA6C5C1BD001B050EA410C0CBFE1
:1009200052EA430C91EA030F02BF90EA020F002043
:10093000704710F1000F91EA030F58BF994208BFAA
:1009400090422CBFD8176FEAE37040F00100704767
:100950004FEA410C7FEA6C5C02D150EA013C07D1BE
:100960004FEA430C7FEA6C5CD6D152EA033CD3D009
:100970005DF8040B704700BF8446104662468C4603
:100980001946634600E000BF01B5FFF7B7FF002836
:1009900048BF10F1000F01BD4DF808EDFFF7F4FF5F
:1009A0000CBF012000205DF808FB00BF4DF808EDEA
:1009B000FFF7EAFF34BF012000205DF808FB00BF0D
:1009C0004DF808EDFFF7E0FF94BF012000205DF82F
:1009D00008FB00BF4DF808EDFFF7CEFF94BF0120E4
:1009E00000205DF808FB00BF4DF808EDFFF7C4FFDD
:1009F00034BF012000205DF808FB00BF4FEA410230
:100A000012F5001215D211D56FF47873B3EB625260
:100A100012D94FEAC12343F0004343EA505311F087
:100A2000004F23FA02F018BF404270474FF0000019
:100A3000704750EA013005D111F0004008BF6FF057
:100A4000004070474FF00000704700BF4A0011D2CD
:100A500012F5001211D20DD56FF47873B3EB625218
:100A60000ED44FEAC12343F0004343EA505323FA24
:100A700002F070474FF00000704750EA013002D199
:100A80004FF0FF3070474FF00000704780F000409B
:100A900002E000BF81F0004142001FBF5FEA410356
:100AA00092EA030F7FEA226C7FEA236C6AD04FEA56
:100AB0001262D2EB1363C1BFD2184140484041409B
:100AC000B8BF5B42192B88BF704710F0004F40F44D
:100AD000000020F07F4018BF404211F0004F41F469
:100AE000000121F07F4118BF494292EA030F3FD035
:100AF000A2F1010241FA03FC10EB0C00C3F1200348
:100B000001FA03F100F0004302D5494260EB4000D6
:100B1000B0F5000F13D3B0F1807F06D340084FEA41
:100B2000310102F10102FE2A51D2B1F1004F40EB36
:100B3000C25008BF20F0010040EA0300704749009E
:100B400040EB000010F4000FA2F10102EDD1B0FA69
:100B500080FCACF1080CB2EB0C0200FA0CF0AABF5E
:100B600000EBC25052421843BCBFD04018437047FC
:100B700092F0000F81F4000106BF80F40000013202
:100B8000013BB5E74FEA41037FEA226C18BF7FEAD9
:100B9000236C21D092EA030F04D092F0000F08BF1B
:100BA0000846704790EA010F1CBF0020704712F002
:100BB0007F4F04D1400028BF40F00040704712F141
:100BC00000723CBF00F50000704700F0004343F0A6
:100BD000FE4040F4000070477FEA226216BF0846DC
:100BE0007FEA23630146420206BF5FEA412390EA9F
:100BF000010F40F4800070474FF0000304E000BF95
:100C000010F0004348BF40425FEA000C08BF704745
:100C100043F0964301464FF000001CE050EA010209
:100C200008BF70474FF000030AE000BF50EA01021E
:100C300008BF704711F0004302D5404261EB41010B
:100C40005FEA010C02BF84460146002043F0B64330
:100C500008BFA3F18053A3F50003BCFA8CF2083A55
:100C6000A3EBC25310DB01FA02FC634400FA02FC5E
:100C7000C2F12002BCF1004F20FA02F243EB020065
:100C800008BF20F00100704702F1200201FA02FCC7
:100C9000C2F1200250EA4C0021FA02F243EB0200BA
:100CA00008BF20EADC7070474FF0FF0C1CEAD052FE
:100CB0001EBF1CEAD15392EA0C0F93EA0C0F6FD0BF
:100CC0001A4480EA010C400218BF5FEA41211ED09D
:100CD0004FF0006343EA501043EA5111A0FB013189
:100CE0000CF00040B1F5000F3EBF490041EAD3715E
:100CF0005B0040EA010062F17F02FD2A1DD8B3F1DA
:100D0000004F40EBC25008BF20F00100704790F048
:100D1000000F0CF0004C08BF49024CEA502040EA9A
:100D200051207F3AC2BFD2F1FF0340EAC250704760
:100D300040F400004FF00003013A5DDC12F1190F9E
:100D4000DCBF00F000407047C2F10002410021FA10
:100D500002F1C2F1200200FA02FC5FEA310040F128
:100D6000000053EA4C0308BF20EADC70704792F0A1
:100D7000000F00F0004C02BF400010F4000F013AD9
:100D8000F9D040EA0C0093F0000F01F0004C02BFD4
:100D9000490011F4000F013BF9D041EA0C018FE743
:100DA0000CEAD15392EA0C0F18BF93EA0C0F0AD049
:100DB00030F0004C18BF31F0004CD8D180EA01006F
:100DC00000F00040704790F0000F17BF90F0004F08
:100DD000084691F0000F91F0004F14D092EA0C0FEA
:100DE00001D142020FD193EA0C0F03D14B0218BF7D
:100DF000084608D180EA010000F0004040F0FE40C3
:100E000040F40000704740F0FE4040F4400070475E
:100E10004FF0FF0C1CEAD0521EBF1CEAD15392EADD
:100E20000C0F93EA0C0F69D0A2EB030280EA010CCD
:100E300049024FEA402037D04FF0805343EA111166
:100E400043EA10130CF000408B4238BF5B0042F1C4
:100E50007D024FF4000C8B4224BF5B1A40EA0C0069
:100E6000B3EB510F24BFA3EB510340EA5C00B3EB9B
:100E7000910F24BFA3EB910340EA9C00B3EBD10F89
:100E800024BFA3EBD10340EADC001B0118BF5FEADB
:100E90001C1CE0D1FD2A3FF650AF8B4240EBC25004
:100EA00008BF20F0010070470CF0004C4CEA5020C5
:100EB0007F32C2BFD2F1FF0340EAC250704740F414
:100EC00000004FF00003013A37E792F0000F00F006
:100ED000004C02BF400010F4000F013AF9D040EA84
:100EE0000C0093F0000F01F0004C02BF490011F418
:100EF000000F013BF9D041EA0C0195E70CEAD15310
:100F000092EA0C0F08D142027FF47DAF93EA0C0FF6
:100F10007FF470AF084676E793EA0C0F04D14B02DA
:100F20003FF44CAF08466EE730F0004C18BF31F08C
:100F3000004CCAD130F000427FF45CAF31F0004386
:100F40007FF43CAF5FE700BF10F8012B11F8013BC5
:100F5000012A28BF9A42F7D0D01A7047034613F8E7
:100F6000012B002AFBD1181A0138704780B500AF59
:100F7000084B1B68074A43F010031360032000F07E
:100F80001FF90F2000F008F808F07EFA0023184639
:100F900080BD00BF0020024080B582B000AF786005
:100FA000124B1A68124B1B7819464FF47A73B3FB35
:100FB000F1F3B2FBF3F3184600F037F90346002BC8
:100FC00001D001230EE07B680F2B0AD8002279683C
:100FD0004FF0FF3000F0FFF8064A7B6813600023F3
:100FE00000E0012318460837BD4680BD30010020CF
:100FF000040000200000002080B400AF054B1B78E7
:101000001A46054B1B681344034A136000BFBD46D4
:1010100080BC7047040000206403002080B400AF4F
:10102000024B1B681846BD4680BC70476403002015
:1010300080B485B000AF78607B6803F00703FB6085
:101040000C4BDB68BB60BA684FF6FF031340BB6014
:10105000FB681A02BB68134343F0BF6343F40033D9
:10106000BB60044ABB68D36000BF1437BD4680BC78
:10107000704700BF00ED00E080B400AF044BDB68B8
:101080001B0A03F007031846BD4680BC704700BF2B
:1010900000ED00E080B483B000AF0346FB71FB7944
:1010A00003F01F02064997F907305B09012000FA97
:1010B00002F241F8232000BF0C37BD4680BC7047C8
:1010C00000E100E080B483B000AF03463960FB71FB
:1010D00097F90730002B0BDA3B68DAB20C49FB7941
:1010E00003F00F03043B1201D2B20B441A7609E05D
:1010F0003B68DAB2074997F907301201D2B20B44C4
:1011000083F8002300BF0C37BD4680BC704700BF8A
:1011100000ED00E000E100E080B489B000AFF860CD
:10112000B9607A60FB6803F00703FB61FB69C3F1F8
:101130000703042B28BF0423BB61FB690433062B80
:1011400002D9FB69033B00E000237B614FF0FF32D3
:10115000BB6902FA03F3DA43BB681A407B699A4021
:101160004FF0FF317B6901FA03F3D9437B680B40F1
:10117000134318462437BD4680BC704780B582B003
:1011800000AF78607B68013BB3F1807F01D301231E
:101190000FE00A4A7B68013B53600F214FF0FF309C
:1011A000FFF790FF054B00229A60044B07221A605C
:1011B000002318460837BD4680BD00BF10E000E0A0
:1011C00080B582B000AF78607868FFF731FF00BF6C
:1011D0000837BD4680BD80B586B000AF0346B96014
:1011E0007A60FB7300237B61FFF746FF78617A68C2
:1011F000B9687869FFF790FF024697F90F301146FA
:101200001846FFF75FFF00BF1837BD4680BD80B5A9
:1012100082B000AF0346FB7197F907301846FFF71D
:1012200039FF00BF0837BD4680BD80B582B000AF32
:1012300078607868FFF7A2FF034618460837BD4676
:1012400080BD000080B584B000AF78600023FB73E0
:101250007B6893F82130022B05D07B6804229A63C7
:101260000123FB7351E07B681B681A687B681B686D
:1012700022F00E021A607B681B681A687B681B6884
:1012800022F001021A607B681B68224A934229D02F
:101290007B681B68204A934222D07B681B681F4AE8
:1012A00093421AD07B681B681D4A934212D07B6818
:1012B0001B681C4A93420AD07B681B681A4A9342F7
:1012C00002D14FF480130EE04FF080730BE04FF427
:1012D000803308E04FF4805305E04FF4807302E060
:1012E000102300E00123114A53607B68012283F838
:1012F00021207B68002283F820207B685B6B002B19
:1013000003D07B685B6B78689847FB7B1846103787
:10131000BD4680BD080002401C0002403000024073
:1013200044000240580002406C00024000000240AD
:1013300080B48BB000AF786039600023FB6100237C
:10134000BB6100237B6100233B6200233B610023E0
:101350007B6227E101227B6A02FA03F3FB613B68AF
:101360001B68FA691340BB61BA69FB699A4240F095
:1013700016813B685B68122B34D0122B0DD8022BE0
:101380002BD0022B04D8002B31D0012B1CD048E0ED
:10139000032B43D0112B1BD043E0874A934226D026
:1013A000854A934206D8854A934220D0844A934284
:1013B0001DD036E0834A934219D0834A934216D017
:1013C000824A934213D02CE03B68DB683B6228E002
:1013D0003B68DB6804333B6223E03B68DB6808332F
:1013E0003B621EE03B68DB680C333B6219E03B6804
:1013F0009B68002B02D104233B6212E03B689B6890
:10140000012B05D108233B627B68FA691A6108E069
:1014100008233B627B68FA695A6102E000233B6261
:1014200000BFBB69FF2B01D87B6801E07B680433F8
:10143000FB60BB69FF2B02D87B6A9B0002E07B6AE2
:10144000083B9B003B61FB681A680F213B6901FA6E
:1014500003F3DB431A40396A3B6901FA03F31A4389
:10146000FB681A603B685B6803F08053002B00F058
:101470009680574B9B69564A43F001039361544B46
:101480009B6903F00103BB60BB68524A7B6A9B08FF
:10149000023352F823307B617B6A03F003039B0025
:1014A0000F2202FA03F3DB437A6913407B617B6806
:1014B000494A934213D07B68484A93420DD07B68D7
:1014C000474A934207D07B68464A934201D103239F
:1014D00006E0042304E0022302E0012300E00023ED
:1014E0007A6A02F00302920093407A6913437B61A7
:1014F00038497B6A9B0802337A6941F823203B68AC
:101500005B6803F48033002B06D0374B1A683649EA
:10151000BB6913430B6006E0334B1A68BB69DB43BE
:10152000314913400B603B685B6803F40033002BC8
:1015300006D02D4B5A682C49BB6913434B6006E01B
:10154000294B5A68BB69DB43274913404B603B6812
:101550005B6803F48013002B06D0234B9A68224962
:10156000BB6913438B6006E01F4B9A68BB69DB4382
:101570001D4913408B603B685B6803F40013002B2C
:1015800006D0194BDA681849BB691343CB6006E0F3
:10159000154BDA68BB69DB4313491340CB607B6AA8
:1015A00001337B627B6A0F2B7FF6D4AE00BF2C37F2
:1015B000BD4680BC704700BF000021100000111024
:1015C0000000121000003110000032100000221044
:1015D000001002400000014000080140000C0140E2
:1015E00000100140001401400004014080B483B0A9
:1015F00000AF78600B467B8013467B707B78002BB6
:1016000003D07A887B681A6103E07B881A047B68C0
:101610001A6100BF0C37BD4680BC7047F0B58BB077
:1016200006AF78600023FB607B68002B01D10123AB
:10163000CAE07B6893F82934DBB2002B06D17B68C3
:10164000002283F82824786808F0E2F87B680322F7
:1016500083F829247B681B68184602F05FF87B68D2
:101660001B683B607E686D4606F110040FCC0FC509
:1016700023682B60331D0ECB386802F025F87B6899
:101680001B680021184602F065F80023FB6037E074
:101690007A68FB685B011344293301221A70FB68E6
:1016A000D9B27A68FB685B01134428330A461A7082
:1016B000FB6899B27A68FB685B01134434330A46CD
:1016C0001A807A68FB685B0113442B3300221A707E
:1016D0007A68FB685B011344383300221A607A6829
:1016E000FB685B0113443C3300221A607A68FB6894
:1016F00002335B01134400221A60FB680133FB6074
:10170000FB680E2BC4D90023FB603CE07A68FB68C1
:101710005B01134403F2292300221A70FB68D9B23B
:101720007A68FB685B01134403F50A730A461A7072
:10173000FB6899B27A68FB685B01134434330A464C
:101740001A807A68FB685B01134403F22B230022A2
:101750001A707A68FB685B01134403F50E7300226C
:101760001A607A68FB685B01134403F50F7300226B
:101770001A607A68FB6812335B01134400221A6016
:10178000FB680133FB60FB680E2BBFD97B681B68CD
:101790003B607E686D4606F110040FCC0FC52368D0
:1017A0002B60331D0ECB386801F0E0FF7B68002210
:1017B00083F824207B68012283F829247B681B6836
:1017C000184602F0CAFF002318461437BD46F0BD84
:1017D00080B582B000AF78607B6893F82834012B25
:1017E00001D1022316E07B68012283F8282401211D
:1017F000786808F034FB7B681B68184602F0A3FF8A
:101800007B681B68184601F06FFF7B68002283F835
:101810002824002318460837BD4680BD80B582B015
:1018200000AF78607B681B68184602F0A0FF034693
:1018300003F40043B3F5004F02D1786800F0D8FA02
:101840007B681B68184602F092FF034603F480632E
:10185000B3F5806F12D17B681B68B3F844309AB23D
:101860007B681B6822F4806292B2A3F844207868F7
:1018700008F043F80021786800F0D2F87B681B6814
:10188000184602F074FF034603F48043B3F5804F1B
:101890000BD17B681B68B3F844309AB27B681B6835
:1018A00022F4804292B2A3F844207B681B68184659
:1018B00002F05DFF034603F40053B3F5005F0BD164
:1018C0007B681B68B3F844309AB27B681B6822F4CB
:1018D000005292B2A3F844207B681B68184602F0BD
:1018E00046FF034603F48053B3F5805F26D17B683F
:1018F0001B68B3F840309AB27B681B6822F0040280
:1019000092B2A3F840207B681B68B3F840309AB2CB
:101910007B681B6822F0080292B2A3F84020786826
:1019200008F028F87B681B68B3F844309AB27B68EB
:101930001B6822F4805292B2A3F844207B681B6893
:10194000184602F014FF034603F40063B3F5006F7A
:1019500031D17B681B68B3F840309AB27B681B6852
:1019600042F0080292B2A3F840207B681B68B3F8EB
:1019700044309AB27B681B6822F4006292B2A3F8EA
:1019800044207B681B68B3F840309AB27B681B68C0
:1019900042F0040292B2A3F840207B681B6818460C
:1019A00002F0E5FE034603F48053B3F5805F02D0F6
:1019B000786807F0C5FF7B681B68184602F0D7FE01
:1019C000034603F40073B3F5007F0ED17B681B68F8
:1019D000B3F844309AB27B681B6822F4007292B26A
:1019E000A3F84420786807F07AFF7B681B681846E4
:1019F00002F0BDFE034603F48073B3F5807F0BD184
:101A00007B681B68B3F844309AB27B681B6822F489
:101A1000807292B2A3F8442000BF0837BD4680BD53
:101A200080B582B000AF78600B46FB707B6893F89E
:101A30002834012B01D1022313E07B68012283F8B3
:101A400028247B68FA7883F824207B681B68FA785E
:101A50001146184602F064FE7B68002283F82824B1
:101A6000002318460837BD4680BD80B584B000AF5E
:101A70007860084611461A460346FB700B463B80C9
:101A80001346BB700023FB720023FB6097F9033001
:101A9000002B08DAFB7803F07F035B0128337A68B8
:101AA0001344FB6008E0FB7803F07F035B0103F560
:101AB0000A737A681344FB60FB7803F07F03DAB2A1
:101AC000FB681A7097F90330DBB2DB09DBB21A4608
:101AD000FB685A703A88FB681A61FB68BA78DA705A
:101AE0007B6893F82834012B01D102230EE07B6838
:101AF000012283F828247B681B68F968184601F0E6
:101B000059FE7B68002283F82824FB7A1846103798
:101B1000BD4680BD80B584B000AF78600B46FB70D9
:101B20000023FB6097F90330002B08DAFB7803F001
:101B30007F035B0128337A681344FB6008E0FB787D
:101B400003F07F035B0103F50A737A681344FB60BB
:101B5000FB7803F07F03DAB2FB681A7097F9033061
:101B6000DBB2DB09DBB21A46FB685A707B6893F87C
:101B70002834012B01D102230EE07B68012283F877
:101B800028247B681B68F968184602F0D5F87B6842
:101B9000002283F82824002318461037BD4680BD54
:101BA00080B586B000AFF8607A603B600B46FB7290
:101BB00000237B61FB7A03F07F035B0103F50A736B
:101BC000FA6813447B617B697A685A617B693A6879
:101BD0009A617B690022DA617B6900225A70FB7A84
:101BE00003F07F03DAB27B691A70FB7A03F07F039C
:101BF000002B06D1FB681B687969184602F024FAAD
:101C000005E0FB681B687969184602F01DFA00239D
:101C100018461837BD4680BD80B483B000AF7860E9
:101C20000B46FB70FB7803F00F037A6812335B01FD
:101C3000134404331B689BB218460C37BD4680BC66
:101C4000704780B586B000AFF8607A603B600B46A5
:101C5000FB7200237B61FB7A03F07F035B01283377
:101C6000FA6813447B617B697A685A617B693A68D8
:101C70009A617B690022DA617B6901225A70FB7AE2
:101C800003F07F03DAB27B691A70FB7A03F07F03FB
:101C9000002B06D1FB681B687969184602F0D4F95D
:101CA00005E0FB681B687969184602F0CDF900234E
:101CB00018461837BD4680BD80B584B000AF786047
:101CC0000B46FB700023FB6097F90330002B08DA0A
:101CD000FB7803F07F035B0128337A681344FB60D1
:101CE00006E0FB785B0103F50A737A681344FB6036
:101CF000FB6801229A70FB7803F07F03DAB2FB687D
:101D00001A7097F90330DBB2DB09DBB21A46FB68C5
:101D10005A707B6893F82834012B01D102231CE010
:101D20007B68012283F828247B681B68F9681846C1
:101D300002F00CFCFB7803F07F03002B08D17B68DA
:101D40001A687B6803F22C431946104602F020FD06
:101D50007B68002283F82824002318461037BD46EC
:101D600080BD80B584B000AF78600B46FB70002367
:101D7000FB6097F90330002B08DAFB7803F07F0350
:101D80005B0128337A681344FB6006E0FB785B0153
:101D900003F50A737A681344FB60FB6800229A70AB
:101DA000FB7803F07F03DAB2FB681A7097F903300F
:101DB000DBB2DB09DBB21A46FB685A707B6893F82A
:101DC0002834012B01D102230EE07B68012283F825
:101DD00028247B681B68F968184602F017FC7B68AA
:101DE000002283F82824002318461037BD4680BD02
:101DF00090B589B000AF78600023FB6100237B833E
:101E000000237B760023FB810023BB8108E3FB8951
:101E10009BB2DBB203F00F037B767B7E002B40F09E
:101E20002A81FB899BB203F01003002B4DD17B6804
:101E30001B681B889BB27A68126823F4E14323F085
:101E400070039BB213807B682833FB617B681B683F
:101E5000B3F850309BB21A46FB691B78DB00134481
:101E600002335B007A681268134403F580631B68D1
:101E70009BB2C3F30902FB69DA61FB695A69FB692A
:101E8000DB691A44FB695A610021786807F010FD8C
:101E90007B6893F82430DBB2002B00F0C182FB6931
:101EA0009B69002B40F0BC827B6893F82430DBB246
:101EB00063F07F03DAB27B681B6892B2A3F84C2010
:101EC0007B68002283F82420AAE27B6803F50A736A
:101ED000FB617B681B681B889BB2BB81BB899BB283
:101EE00003F40063002B31D07B681B68B3F85030DB
:101EF0009BB21A46FB691B78DB00134406335B0078
:101F00007A681268134403F580631B689BB2C3F3BD
:101F10000902FB69DA617B6818687B6803F22C416F
:101F2000FB699A88FB69DB699BB202F082FC7B68E3
:101F30001B681B8899B27B681A6840F68F730B4048
:101F40009BB21380786807F089FC69E2BB899BB279
:101F50001BB2002B80F264827B681B681B8899B2DD
:101F60007B681A6840F68F730B409BB213807B68C6
:101F70001B68B3F850309BB21A46FB691B78DB0034
:101F8000134406335B007A681268134403F58063D8
:101F90001B689BB2C3F30902FB69DA61FB69DB6969
:101FA000002B11D07B681868FB695969FB699A8816
:101FB000FB69DB699BB202F03CFCFB695A69FB6977
:101FC000DB691A44FB695A610021786807F058FC04
:101FD0007B681B68B3F850309BB206335B007A68AD
:101FE0001268134403F580633B61FB691B693E2B58
:101FF00018D9FB691B695B09FB82FB691B6903F04C
:102000001F03002B02D1FB8A013BFB82FB8A9B0250
:102010009BB26FEA43436FEA53439BB21A463B6954
:102020001A6012E0FB691B695B08FB82FB691B6994
:1020300003F00103002B02D0FB8A0133FB82FB8AF1
:102040009B029BB21A463B691A607B681B681B881F
:102050009BB223F4804323F070039CB284F480533A
:102060009CB284F400539CB27B681A68984B23435B
:102070009BB21380D4E17B681B681A467B7E9B0071
:1020800013441B889BB2BB81BB899BB21BB2002B44
:1020900080F2D0807B681B681A467B7E9B001344CD
:1020A0001B8899B27B681B681A467B7E9B001A448A
:1020B00040F68F730B409BB213807B7E5B0103F570
:1020C0000A737A681344FB61FB699B7A002B22D167
:1020D0007B681B68B3F850309BB21A46FB691B78CB
:1020E000DB00134406335B007A681268134403F57F
:1020F00080631B689BB2C3F309037B837B8B002B3C
:1021000073D07B681868FB695969FB699A887B8B77
:1021100002F08FFB69E07B681B681A46FB691B783D
:102120009B0013441B889BB203F48043002B22D0F6
:102130007B681B68B3F850309BB21A46FB691B786A
:10214000DB00134402335B007A681268134403F522
:1021500080631B689BB2C3F309037B837B8B002BDB
:102160002BD07B681868FB695969FB69DA887B8B1F
:1021700002F05FFB21E07B681B68B3F850309BB234
:102180001A46FB691B78DB00134406335B007A6850
:102190001268134403F580631B689BB2C3F3090301
:1021A0007B837B8B002B08D07B681868FB6959699F
:1021B000FB691A897B8B02F03CFB7B681B681A4623
:1021C000FB691B789B0013441B889AB240F60F737F
:1021D000134099B27B681B681A46FB691B789B0009
:1021E0001A443C4B0B439BB21380FB69DA697B8B2F
:1021F0001A44FB69DA61FB695A697B8B1A44FB69F3
:102200005A61FB699B69002B04D07A8BFB691B69BF
:102210009A4206D2FB691B781946786807F030FBB2
:1022200008E0FB691978FB695A69FB699B69786862
:10223000FFF7B6FCBB899BB203F08003002B00F0D4
:10224000EF807B7E5B0128337A681344FB617B68F7
:102250001B681A467B7E9B0013441B889BB27A68DE
:10226000126811467A7E92000A4423F4E14323F077
:1022700070039BB21380FB699B7A002B2CD17B6887
:102280001B68B3F850309BB21A46FB691B78DB0021
:10229000134402335B007A681268134403F58063C9
:1022A0001B689BB2C3F30902FB69DA61FB69DB6956
:1022B000002B00F083807B681868FB695969FB6913
:1022C0009A88FB69DB699BB202F06DFA76E000BF89
:1022D0008080FFFFC080FFFF7B681B681A46FB6998
:1022E0001B789B0013441B889BB203F04003002B18
:1022F00026D07B681B68B3F850309BB21A46FB6946
:102300001B78DB00134402335B007A6812681344C5
:1023100003F580631B689BB2C3F30902FB69DA61B2
:10232000FB69DB69002B31D07B681868FB69596950
:10233000FB69DA88FB69DB699BB202F034FA25E0BD
:102340007B681B68B3F850309BB21A46FB691B7858
:10235000DB00134406335B007A681268134403F50C
:1023600080631B689BB2C3F30902FB69DA61FB69F6
:10237000DB69002B0AD07B681868FB695969FB6927
:102380001A89FB69DB699BB202F00DFA7B681B6856
:102390001A46FB691B789B0013441B889AB240F6CF
:1023A0000F73134099B27B681B681A46FB691B7850
:1023B0009B001A44224B0B439BB213807B681B6823
:1023C000B3F850309BB21A46FB691B78DB0013440C
:1023D00002335B007A681268134403F580631B685C
:1023E0009BB2C3F30902FB69DA61FB695A69FB69B5
:1023F000DB691A44FB695A61FB699B69002B06D1B2
:10240000FB691B781946786807F052FA08E0FB6907
:102410001978FB695A69FB699B697868FFF711FCB9
:102420007B681B68B3F844309BB21A46FA811BB232
:10243000002BFFF6ECAC002318462437BD4690BDB8
:1024400080C0FFFF80B487B000AFF8607B600B46B0
:102450007B8113463B8100237B617B8903F08003F2
:10246000002B08D07B8903F07F035B012833FA68D7
:1024700013447B6106E07B895B0103F50A73FA680C
:1024800013447B613B89002B07D17B6900229A7240
:102490007B689AB27B699A800BE07B6901229A7211
:1024A0007B689AB27B69DA807B681B0C9AB27B6985
:1024B0001A81002318461C37BD4680BC70470000B7
:1024C00080B586B000AF786000233B617B681B68F5
:1024D00003F00103002B00F08780924B5B6803F050
:1024E0000C03042B0CD08F4B5B6803F00C03082B00
:1024F00012D18C4B5B6803F48033B3F5803F0BD172
:10250000884B1B6803F40033002B6CD07B685B683E
:10251000002B68D101232DE27B685B68B3F5803F17
:1025200006D1804B1B687F4A43F4803313602EE052
:102530007B685B68002B0CD17A4B1B68794A23F4CB
:1025400080331360774B1B68764A23F48023136033
:102550001DE07B685B68B3F5A02F0CD1714B1B6845
:10256000704A43F4802313606E4B1B686D4A43F43A
:10257000803313600BE06B4B1B686A4A23F4803393
:102580001360684B1B68674A23F4802313607B68E1
:102590005B68002B13D0FEF741FD386108E0FEF7C1
:1025A0003DFD02463B69D31A642B01D90323E1E1C7
:1025B0005C4B1B6803F40033002BF0D014E0FEF7F3
:1025C0002DFD386108E0FEF729FD02463B69D31A6C
:1025D000642B01D90323CDE1524B1B6803F4003374
:1025E000002BF0D100E000BF7B681B6803F0020302
:1025F000002B63D04B4B5B6803F00C03002B0BD01C
:10260000484B5B6803F00C03082B1CD1454B5B68FF
:1026100003F48033002B16D1424B1B6803F00203F6
:10262000002B05D07B681B69012B01D00123A1E1A0
:102630003C4B1B6823F0F8027B685B69DB0039497F
:1026400013430B603AE07B681B69002B20D0364BAC
:1026500001221A60FEF7E2FC386108E0FEF7DEFCBA
:1026600002463B69D31A022B01D9032382E12D4B89
:102670001B6803F00203002BF0D02A4B1B6823F0E9
:10268000F8027B685B69DB00264913430B6015E0A9
:10269000254B00221A60FEF7C1FC386108E0FEF706
:1026A000BDFC02463B69D31A022B01D9032361E129
:1026B0001C4B1B6803F00203002BF0D17B681B68E6
:1026C00003F00803002B39D07B689B69002B19D0DD
:1026D000164B01221A60FEF7A1FC386108E0FEF7F4
:1026E0009DFC02463B69D31A022B01D9032341E129
:1026F0000C4B5B6A03F00203002BF0D0012000F0CA
:10270000E3FA1BE0094B00221A60FEF787FC3861F0
:102710000EE0FEF783FC02463B69D31A022B07D971
:10272000032327E10010024000004242800442429D
:10273000924B5B6A03F00203002BEAD17B681B68B3
:1027400003F00403002B00F0A6800023FB758B4BE5
:10275000DB6903F08053002B0DD1884BDB69874A7E
:1027600043F08053D361854BDB6903F08053FB60FA
:10277000FB680123FB75824B1B6803F48073002BFD
:1027800018D17F4B1B687E4A43F480731360FEF7B9
:1027900045FC386108E0FEF741FC02463B69D31A6C
:1027A000642B01D90323E5E0754B1B6803F48073A8
:1027B000002BF0D07B68DB68012B06D16F4B1B6AC6
:1027C0006E4A43F0010313622DE07B68DB68002B47
:1027D0000CD16A4B1B6A694A23F001031362674BF1
:1027E0001B6A664A23F0040313621CE07B68DB6803
:1027F000052B0CD1614B1B6A604A43F00403136242
:102800005E4B1B6A5D4A43F0010313620BE05B4BB6
:102810001B6A5A4A23F001031362584B1B6A574A3A
:1028200023F0040313627B68DB68002B15D0FEF7EE
:10283000F5FB38610AE0FEF7F1FB02463B69D31A6B
:1028400041F28832934201D9032393E04B4B1B6A38
:1028500003F00203002BEED014E0FEF7DFFB38613B
:102860000AE0FEF7DBFB02463B69D31A41F28832ED
:10287000934201D903237DE0404B1B6A03F002031E
:10288000002BEED1FB7D012B05D13C4BDB693B4A94
:1028900023F08053D3617B68DB69002B69D0374B11
:1028A0005B6803F00C03082B61D07B68DB69022BAB
:1028B00046D1344B00221A60FEF7B0FB386108E0C5
:1028C000FEF7ACFB02463B69D31A022B01D9032366
:1028D00050E02A4B1B6803F00073002BF0D17B689B
:1028E0001B6AB3F5803F08D1244B5B6823F40032A8
:1028F0007B689B68214913434B60204B5B6823F442
:1029000074127B68196A7B685B6A0B431B4913432B
:102910004B601C4B01221A60FEF780FB386108E017
:10292000FEF77CFB02463B69D31A022B01D9032335
:1029300020E0124B1B6803F00073002BF0D018E06E
:10294000104B00221A60FEF769FB386108E0FEF7C1
:1029500065FB02463B69D31A022B01D9032309E028
:10296000064B1B6803F00073002BF0D101E001233C
:1029700000E0002318461837BD4680BD0010024015
:10298000007000406000424280B584B000AF7860C3
:1029900039600023FB607E4B1B6803F007033A6835
:1029A0009A4210D97A4B1B6823F0070278493B689A
:1029B00013430B60764B1B6803F007033A689A4297
:1029C00001D00123E0E07B681B6803F00203002BC9
:1029D00020D07B681B6803F00403002B05D06D4BEF
:1029E0005B686C4A43F4E06353607B681B6803F0E8
:1029F0000803002B05D0674B5B68664A43F46053BD
:102A00005360644B5B6823F0F0027B689B6861490C
:102A100013434B607B681B6803F00103002B6AD0F3
:102A20007B685B68012B07D15A4B1B6803F40033AA
:102A3000002B15D10123A7E07B685B68022B07D12F
:102A4000544B1B6803F00073002B09D101239BE05A
:102A5000504B1B6803F00203002B01D1012393E0CC
:102A60004C4B5B6823F003027B685B684949134366
:102A70004B60FEF7D3FAF8607B685B68012B12D1DC
:102A80000AE0FEF7CBFA0246FB68D31A41F288321D
:102A9000934201D9032377E03E4B5B6803F00C03BC
:102AA000042BEED127E07B685B68022B1DD10AE086
:102AB000FEF7B4FA0246FB68D31A41F28832934219
:102AC00001D9032360E0334B5B6803F00C03082B50
:102AD000EED110E0FEF7A2FA0246FB68D31A41F2EB
:102AE0008832934201D903234EE02A4B5B6803F0FE
:102AF0000C03002BEED1264B1B6803F007033A684A
:102B00009A4210D2224B1B6823F0070220493B68EF
:102B100013430B601E4B1B6803F007033A689A428D
:102B200001D0012330E07B681B6803F00403002B15
:102B300008D0184B5B6823F4E0627B68DB681549BA
:102B400013434B607B681B6803F00803002B09D01C
:102B5000104B5B6823F460527B681B69DB000D49F6
:102B600013434B6000F01CF801460A4B5B681B09DD
:102B700003F00F03084AD35C21FA03F3074A1360FA
:102B80000F20FEF709FA002318461037BD4680BD16
:102B9000002002400010024018CF00083001002041
:102BA00090B48AB000AF2A4B3C1D0FCB84E80F00D5
:102BB000284B1B883B800023FB610023BB61002363
:102BC0007B6200237B6100233B62234B5B68FB61DC
:102BD000FB6903F00C03042B02D0082B03D02DE07B
:102BE0001E4B3B622DE0FB699B0C03F00F0307F1CA
:102BF0002802134413F8243C7B61FB6903F48033FF
:102C0000002B13D0144B5B685B0C03F0010307F13E
:102C10002802134413F8283CBB617B690F4A02FB6E
:102C200003F2BB69B2FBF3F37B6204E07B690C4AFD
:102C300002FB03F37B627B6A3B6202E0074B3B6271
:102C400000BF3B6A18462837BD4690BC704700BF9E
:102C5000B8CD0008C8CD00080010024000127A006C
:102C600000093D0080B400AF024B1B681846BD460A
:102C700080BC70473001002080B500AFFFF7F2FF45
:102C80000146054B5B681B0A03F00703034AD35C4C
:102C900021FA03F3184680BD0010024028CF000837
:102CA00080B500AFFFF7DEFF0146054B5B68DB0A2E
:102CB00003F00703034AD35C21FA03F3184680BDEF
:102CC0000010024028CF000880B485B000AF7860C3
:102CD0000A4B1B680A4AA2FB03235B0A7A6802FBC1
:102CE00003F3FB6000BFFB685A1EFA60002BF9D1AA
:102CF00000BF1437BD4680BC704700BF30010020C4
:102D0000D34D621080B586B000AF786000233B6180
:102D10000023FB607B681B6803F00103002B7DD060
:102D20000023FB754F4BDB6903F08053002B0DD163
:102D30004C4BDB694B4A43F08053D361494BDB6911
:102D400003F08053BB60BB680123FB75464B1B68D7
:102D500003F48073002B18D1434B1B68424A43F4A1
:102D600080731360FEF75AF9386108E0FEF756F9F0
:102D700002463B69D31A642B01D903236DE03A4B19
:102D80001B6803F48073002BF0D0364B1B6A03F4EE
:102D90004073FB60FB68002B2ED07B685B6803F4FC
:102DA0004073FA689A4227D02E4B1B6A23F4407373
:102DB000FB602E4B01221A602C4B00221A60294A1C
:102DC000FB681362FB6803F00103002B14D0FEF7CD
:102DD00025F938610AE0FEF721F902463B69D31A6A
:102DE00041F28832934201D9032336E01D4B1B6A1E
:102DF00003F00203002BEED01A4B1B6A23F440723F
:102E00007B685B68174913430B62FB7D012B05D17F
:102E1000144BDB69134A23F08053D3617B681B6832
:102E200003F00203002B08D00E4B5B6823F44042F2
:102E30007B689B680B4913434B607B681B6803F0FE
:102E40001003002B08D0074B5B6823F480027B68DB
:102E5000DB68044913434B60002318461837BD460E
:102E600080BD00BF0010024000700040400442429C
:102E700080B582B000AF78607B68002B01D1012360
:102E80003FE07B6893F83930DBB2002B06D17B68DA
:102E9000002283F83820786806F02EFB7B68242215
:102EA00083F839207B681B68DA687B681B6822F42A
:102EB0000052DA60786800F0EFFA7B681B681A69E4
:102EC0007B681B6822F490421A617B681B685A6910
:102ED0007B681B6822F02A025A617B681B68DA68EB
:102EE0007B681B6842F40052DA607B680022DA6378
:102EF0007B68202283F839207B68202283F83A20DF
:102F0000002318460837BD4680BD80B485B000AFA9
:102F1000F860B9601346FB80FB6893F83930DBB288
:102F2000202B30D1BB68002B02D0FB88002B01D1B5
:102F3000012329E0FB6893F83830012B01D10223EB
:102F400022E0FB68012283F83820FB68BA681A6225
:102F5000FB68FA889A84FB68FA88DA84FB680022A6
:102F6000DA63FB68212283F83920FB68002283F8AA
:102F70003820FB681B68DA68FB681B6842F0800237
:102F8000DA60002300E0022318461437BD4680BCF7
:102F9000704780B485B000AFF860B9601346FB801D
:102FA000FB6893F83A30DBB2202B40D1BB68002B92
:102FB00002D0FB88002B01D1012339E0FB6893F894
:102FC0003830012B01D1022332E0FB68012283F863
:102FD0003820FB68BA689A62FB68FA889A85FB68B1
:102FE000FA88DA85FB680022DA63FB68222283F81C
:102FF0003A20FB68002283F83820FB681B68DA68F7
:10300000FB681B6842F48072DA60FB681B685A69CF
:10301000FB681B6842F001025A61FB681B68DA68B2
:10302000FB681B6842F02002DA60002300E0022304
:1030300018461437BD4680BC7047000080B588B084
:1030400000AF78607B681B681B68FB617B681B684E
:10305000DB68BB617B681B685B697B6100233B614C
:103060000023FB60FB6903F00F033B613B69002B0E
:103070000DD1FB6903F02003002B08D0BB6903F0DE
:103080002003002B03D0786800F084F9CCE03B6982
:10309000002B00F0AB807B6903F00103002B05D10E
:1030A000BB6903F49073002B00F0A080FB6903F070
:1030B0000103002B0AD0BB6903F48073002B05D0F9
:1030C0007B68DB6B43F001027B68DA63FB6903F02A
:1030D0000403002B0AD07B6903F00103002B05D009
:1030E0007B68DB6B43F002027B68DA63FB6903F009
:1030F0000203002B0AD07B6903F00103002B05D0EB
:103100007B68DB6B43F004027B68DA63FB6903F0E6
:103110000803002B0AD07B6903F00103002B05D0C4
:103120007B68DB6B43F008027B68DA637B68DB6BF0
:10313000002B78D0FB6903F02003002B07D0BB697C
:1031400003F02003002B02D0786800F023F97B689D
:103150001B685B6903F04003002B14BF01230023AD
:10316000DBB2FB607B68DB6B03F00803002B02D152
:10317000FB68002B31D0786800F06EF87B681B6824
:103180005B6903F04003002B23D07B681B685A69FE
:103190007B681B6822F040025A617B685B6B002BE6
:1031A00013D07B685B6B224A5A637B685B6B184663
:1031B000FEF748F80346002B16D07B685B6B5B6B11
:1031C0007A68526B104698470EE0786800F03BF83A
:1031D0000AE0786800F037F806E0786800F033F825
:1031E0007B680022DA631EE000BF1CE0FB6903F08D
:1031F0008003002B08D0BB6903F08003002B03D0B1
:10320000786800F05AF80FE0FB6903F04003002BE8
:103210000AD0BB6903F04003002B05D0786800F0AA
:10322000A1F800BF00E000BF2037BD4680BD00BF51
:103230009332000880B483B000AF786000BF0C37D1
:10324000BD4680BC704780B483B000AF786000BFDB
:103250000C37BD4680BC704780B483B000AF786047
:103260007B681B68DA687B681B6822F49072DA60FE
:103270007B681B685A697B681B6822F001025A61EF
:103280007B68202283F83A2000BF0C37BD4680BC03
:10329000704780B584B000AF78607B685B6AFB6084
:1032A000FB680022DA85FB680022DA84F868FFF701
:1032B000CAFF00BF1037BD4680BD80B485B000AFE7
:1032C00078607B6893F83930DBB2212B44D17B687E
:1032D0009B68B3F5805F1AD17B681B6AFB60FB6853
:1032E0001B881A467B681B68C2F308025A607B6819
:1032F0001B69002B05D17B681B6A9A1C7B681A62CC
:103300000EE07B681B6A5A1C7B681A6208E07B68C7
:103310001B6A591C7A6811621A787B681B685A60AC
:103320007B68DB8C9BB2013B9BB27A681946D184E7
:10333000002B0FD17B681B68DA687B681B6822F062
:103340008002DA607B681B68DA687B681B6842F081
:103350004002DA60002300E0022318461437BD461D
:1033600080BC704780B582B000AF78607B681B6816
:10337000DA687B681B6822F04002DA607B682022F2
:1033800083F839207868FFF755FF0023184608377F
:10339000BD4680BD80B584B000AF78607B6893F88F
:1033A0003A30DBB2222B71D17B689B68B3F5805F2A
:1033B00023D17B689B6AFB607B681B69002B0ED165
:1033C0007B681B685B689BB2C3F308039AB2FB6817
:1033D0001A807B689B6A9A1C7B689A6229E07B68EA
:1033E0001B685B689BB2DBB29AB2FB681A807B6891
:1033F0009B6A5A1C7B689A621BE07B681B69002BE6
:103400000AD17B681B6858687B689B6A591C7A687C
:103410009162C2B21A700CE07B681B685B68DAB21A
:103420007B689B6A581C7968886202F07F02D2B27E
:103430001A707B68DB8D9BB2013B9BB27A681946A0
:10344000D185002B20D17B681B68DA687B681B68FC
:1034500022F02002DA607B681B68DA687B681B68F0
:1034600022F48072DA607B681B685A697B681B688B
:1034700022F001025A617B68202283F83A207868A2
:1034800005F08AFC002302E0002300E00223184636
:103490001037BD4680BD0000B0B584B000AF786085
:1034A0000023FB607B681B681B6923F440517B6829
:1034B000DA687B681B680A431A617B689A687B68D4
:1034C0001B691A437B685B691343FA681343FB600B
:1034D0007B681B68DB6823F4B05323F00C037A6825
:1034E0001268F9680B43D3607B681B685B6923F43F
:1034F00040717B689A697B681B680A435A617B68E4
:103500001B686F4A93426BD1FFF7CAFB0246134612
:103510009B0013449A001A447B685B689B00B2FBD3
:10352000F3F3684AA2FB03235B091C01FFF7B8FB16
:10353000024613469B0013449A001A447B685B685A
:103540009B00B2FBF3F5FFF7ABFB024613469B0073
:1035500013449A001A447B685B689B00B2FBF3F348
:10356000584AA2FB03235B09642202FB03F3EB1A14
:103570001B013233534AA2FB03235B0903F0F00320
:103580001C44FFF78DFB024613469B0013449A0030
:103590001A447B685B689B00B2FBF3F5FFF780FB86
:1035A000024613469B0013449A001A447B685B68EA
:1035B0009B00B2FBF3F3434AA2FB03235B096422A3
:1035C00002FB03F3EB1A1B0132333E4AA2FB032337
:1035D0005B0903F00F027B681B6822449A606AE073
:1035E000FFF74AFB024613469B0013449A001A4415
:1035F0007B685B689B00B2FBF3F3324AA2FB0323B8
:103600005B091C01FFF738FB024613469B0013447D
:103610009A001A447B685B689B00B2FBF3F5FFF7E6
:103620002BFB024613469B0013449A001A447B6806
:103630005B689B00B2FBF3F3224AA2FB03235B0906
:10364000642202FB03F3EB1A1B0132331D4AA2FB77
:1036500003235B0903F0F0031C44FFF70DFB024654
:1036600013469B0013449A001A447B685B689B00D6
:10367000B2FBF3F5FFF700FB024613469B00134431
:103680009A001A447B685B689B00B2FBF3F30D4A17
:10369000A2FB03235B09642202FB03F3EB1A1B0169
:1036A0003233084AA2FB03235B0903F00F027B6855
:1036B0001B6822449A6000BF1037BD46B0BD00BFF2
:1036C000003801401F85EB5184B080B483B000AF57
:1036D000786007F1140080E80E00002318460C37CC
:1036E000BD4680BC04B0704780B485B000AF786040
:1036F0000023FB604FF43F43FB607B68B3F840302E
:103700009AB2FB689BB213439AB27B68A3F840203D
:10371000002318461437BD4680BC704780B485B07E
:1037200000AF78600023FB604FF43D43FB607B6893
:10373000B3F840309AB2FB689BB2DB439BB21340B4
:103740009AB27B68A3F84020002318461437BD4680
:1037500080BC704780B483B000AF78600B46FB70CC
:10376000002318460C37BD4680BC704784B080B536
:1037700082B000AF786007F1140080E80E007B682B
:103780000122A3F840207B680022A3F840207B6838
:103790000022A3F844207B680022A3F85020786818
:1037A000FFF7A2FF002318460837BD46BDE880405A
:1037B00004B0704790B484B000AF786039603B6863
:1037C000DB78032B5FD801A252F823F0DD37000825
:1037D0005B380008093800082F3800087A683B6811
:1037E0001B789B0013441B889BB223F4EC4323F00B
:1037F00070039AB279683B681B789B000B4442F4D3
:10380000007292B21A803FE07A683B681B789B0096
:1038100013441B889BB279683A68127892000A4474
:1038200023F4EC4323F070039BB213802CE07A68FE
:103830003B681B789B0013441B889BB223F4EC432A
:1038400023F070039AB279683B681B789B000B44A5
:1038500042F4C06292B21A8016E07A683B681B7824
:103860009B0013441B889BB223F4EC4323F07003AA
:103870009AB279683B681B789B000B4442F48062E3
:1038800092B21A8000E000BF7A683B681B789B0008
:1038900013441B889AB240F60F7313409AB23B68E8
:1038A0001B789BB2134399B27A683B681B789B00E4
:1038B0001A44754B0B439BB213803B689B7A002BD9
:1038C00040F0E8803B685B78002B4CD03B689B88DD
:1038D0005B089BB259007B68B3F850309BB21A4624
:1038E0003B681B78DB0013445A007B68134403F5E4
:1038F00080630A461A607A683B681B789B00134411
:103900001B889BB203F04003002B13D07A683B68FE
:103910001B789B0013441B889AB240F60F73134028
:1039200099B27A683B681B789B001A44574B0B434B
:103930009BB213807A683B681B789B0013441B88FA
:103940009BB223F4E04323F040039CB284F02003B5
:103950009CB27A683B681B789B001A444A4B23430D
:103960009BB21380D9E13B689B885B089BB25900EE
:103970007B68B3F850309BB21A463B681B78DB007B
:10398000134404335A007B68134403F580630A46EA
:103990001A607B68B3F850309BB21A463B681B78BC
:1039A000DB00134406335A007B68134403F580633D
:1039B000BB603B681B693E2B18D93B681B695B09E0
:1039C000FB813B681B6903F01F03002B02D1FB89BD
:1039D000013BFB81FB899B029BB26FEA43436FEA89
:1039E00053439BB21A46BB681A6012E03B681B69DE
:1039F0005B08FB813B681B6903F00103002B02D0CD
:103A0000FB890133FB81FB899B029BB21A46BB6891
:103A10001A607A683B681B789B0013441B889BB232
:103A200003F48043002B13D07A683B681B789B001B
:103A300013441B889AB240F60F73134099B27A6808
:103A40003B681B789B001A44114B0B439BB21380BD
:103A50007A683B681B789B0013441B889BB223F455
:103A6000804323F070039CB284F480539CB284F4AE
:103A700000539CB27A683B681B789B001A44024B47
:103A800023439BB2138048E18080FFFFC080FFFF8B
:103A900080C0FFFF7A683B681B789B0013441B883B
:103AA0009AB240F60F63134099B27A683B681B786C
:103AB0009B001A449C4B0B439BB213803B68DB88F2
:103AC0005B089BB259007B68B3F850309BB21A4632
:103AD0003B681B78DB0013445A007B68134403F5F2
:103AE00080630A461A603B681B895B089BB25900D9
:103AF0007B68B3F850309BB21A463B681B78DB00FA
:103B0000134404335A007B68134403F580630A4668
:103B10001A603B685B78002B40F083807A683B68D2
:103B20001B789B0013441B889BB203F48043002B3B
:103B300013D07A683B681B789B0013441B889AB2A9
:103B400040F60F73134099B27A683B681B789B006C
:103B50001A44764B0B439BB213807A683B681B7800
:103B60009B0013441B889BB203F04003002B13D02F
:103B70007A683B681B789B0013441B889AB240F616
:103B80000F73134099B27A683B681B789B001A4404
:103B9000674B0B439BB213807A683B681B789B0092
:103BA00013441B889AB240F60F73134099B27A6897
:103BB0003B681B789B001A445D4B0B439BB2138000
:103BC0007A683B681B789B0013441B889BB223F4E4
:103BD000804323F070039CB284F480539CB284F43D
:103BE00000539CB27A683B681B789B001A44514B87
:103BF00023439BB213807A683B681B789B00134475
:103C00001B889BB223F4E04323F040039CB27A6804
:103C10003B681B789B001A44464B23439BB213809E
:103C20007BE07A683B681B789B0013441B889BB23F
:103C300003F48043002B13D07A683B681B789B0009
:103C400013441B889AB240F60F73134099B27A68F6
:103C50003B681B789B001A44344B0B439BB2138088
:103C60007A683B681B789B0013441B889BB203F067
:103C70004003002B13D07A683B681B789B001344E9
:103C80001B889AB240F60F73134099B27A683B686A
:103C90001B789B001A44264B0B439BB213807A6817
:103CA0003B681B789B0013441B889AB240F60F7345
:103CB000134099B27A683B681B789B001A441B4BEF
:103CC0000B439BB213807A683B681B789B001344BC
:103CD0001B889BB223F4E04323F040039CB27A6834
:103CE0003B681B789B001A44124B23439BB2138002
:103CF0007A683B681B789B0013441B889BB223F4B3
:103D0000804323F070039CB27A683B681B789B0069
:103D10001A44084B23439BB21380002318461037E4
:103D2000BD4690BC704700BF8081FFFF80C0FFFF91
:103D3000C080FFFF8080FFFF90B482B000AF78604A
:103D400039603B689B7A002B6DD13B685B78002B18
:103D500034D07A683B681B789B0013441B889BB265
:103D600003F04003002B13D07A683B681B789B005C
:103D700013441B889AB240F60F73134099B27A68C5
:103D80003B681B789B001A44684B0B439BB2138023
:103D90007A683B681B789B0013441B889BB223F412
:103DA000E04323F040039CB27A683B681B789B0099
:103DB0001A445F4B23439BB2138039E17A683B6816
:103DC0001B789B0013441B889BB203F48043002B99
:103DD00013D07A683B681B789B0013441B889AB207
:103DE00040F60F73134099B27A683B681B789B00CA
:103DF0001A44504B0B439BB213807A683B681B7884
:103E00009B0013441B889BB223F4804323F0700370
:103E10009CB27A683B681B789B001A44444B23434E
:103E20009BB2138004E13B685B78002B40F08480F8
:103E30007A683B681B789B0013441B889BB203F491
:103E40008043002B13D07A683B681B789B00134497
:103E50001B889AB240F60F73134099B27A683B6898
:103E60001B789B001A44334B0B439BB213807A6838
:103E70003B681B789B0013441B889BB203F04003F4
:103E8000002B13D07A683B681B789B0013441B8877
:103E90009AB240F60F73134099B27A683B681B7868
:103EA0009B001A44214B0B439BB213807A683B68FA
:103EB0001B789B0013441B889AB240F60F73134083
:103EC00099B27A683B681B789B001A44174B0B43E6
:103ED0009BB213807A683B681B789B0013441B8855
:103EE0009BB223F4804323F070039CB27A683B6852
:103EF0001B789B001A440E4B23439BB213807A68B5
:103F00003B681B789B0013441B889BB223F4E0435F
:103F100023F040039CB27A683B681B789B001A44EC
:103F2000034B23439BB2138082E000BFC080FFFF9E
:103F30008080FFFF80C0FFFF7A683B681B789B0092
:103F400013441B889BB203F48043002B13D07A6880
:103F50003B681B789B0013441B889AB240F60F7392
:103F6000134099B27A683B681B789B001A44334B24
:103F70000B439BB213807A683B681B789B00134409
:103F80001B889BB203F04003002B13D07A683B6878
:103F90001B789B0013441B889AB240F60F731340A2
:103FA00099B27A683B681B789B001A44244B0B43F8
:103FB0009BB213807A683B681B789B0013441B8874
:103FC0009AB240F60F73134099B27A683B681B7837
:103FD0009B001A44194B0B439BB213807A683B68D1
:103FE0001B789B0013441B889BB223F4E04323F00F
:103FF00040039CB27A683B681B789B001A44114BC3
:1040000023439BB213807A683B681B789B00134460
:104010001B889BB223F4804323F070039CB27A6820
:104020003B681B789B001A44064B23439BB21380CA
:10403000002318460837BD4690BC704780C0FFFF7C
:10404000C080FFFF8080FFFF90B58DB000AF78602B
:1040500039600023FB853B689B69BB623B685B78EA
:10406000012B40F049813B689A693B681B699A4281
:1040700009D93B681B69BB623B689A69BB6AD21A63
:104080003B689A6105E03B689B69BB623B68002224
:104090009A613B689B7A002B1BD13B6859693B684E
:1040A0009A88BB6A9BB2786800F07DFB7B68B3F8A6
:1040B00050309BB21A463B681B78DB001344023336
:1040C0005A007B68134403F580631A46BB6A136089
:1040D000F6E07A683B681B789B0013441B889BB210
:1040E00003F04003002B59D03B685B78002B3BD199
:1040F0007B68B3F850309BB21A463B681B78DB00F4
:10410000134406335A007B68134403F58063BB6095
:10411000BB6A3E2B16D9BB6A5B09FB84BB6A03F002
:104120001F03002B02D1FB8C013BFB84FB8C9B0209
:104130009BB26FEA43436FEA53439BB21A46BB6894
:104140001A6027E0BB6A5B08FB84BB6A03F00103CB
:10415000002B02D0FB8C0133FB84FB8C9B029BB2B7
:104160001A46BB681A6015E03B685B78012B11D1D9
:104170007B68B3F850309BB21A463B681B78DB0073
:10418000134402335A007B68134403F580631A46D4
:10419000BB6A13603B681B89FB8558E03B685B7812
:1041A000002B3BD17B68B3F850309BB21A463B687A
:1041B0001B78DB00134402335A007B68134403F579
:1041C0008063FB60BB6A3E2B16D9BB6A5B09BB846C
:1041D000BB6A03F01F03002B02D1BB8C013BBB84E5
:1041E000BB8C9B029BB26FEA43436FEA53439BB283
:1041F0001A46FB681A6027E0BB6A5B08BB84BB6A8F
:1042000003F00103002B02D0BB8C0133BB84BB8CB9
:104210009B029BB21A46FB681A6015E03B685B780C
:10422000012B11D17B68B3F850309BB21A463B6822
:104230001B78DB00134402335A007B68134403F5F8
:1042400080631A46BB6A13603B68DB88FB853B686A
:104250005969BB6A9BB2FA8D786800F0A4FA3B6892
:104260005B78002B14D17A683B681B789B00134461
:104270001B889AB240F60F73134099B27A683B6874
:104280001B789B001A44924B0B439BB2138017E0A0
:104290003B685B78012B13D17A683B681B789B00E5
:1042A00013441B889AB240F60F73134099B27A6890
:1042B0003B681B789B001A44864B0B439BB21380D0
:1042C0007A683B681B789B0013441B889BB223F4DD
:1042D000E04323F040039CB284F010039CB284F0CE
:1042E00020039CB27A683B681B789B001A447A4B87
:1042F00023439BB2138022E13B689A693B681B69A8
:104300009A4209D93B681B69BB623B689A69BB6AE0
:10431000D21A3B689A6105E03B689B69BB623B68C7
:1043200000229A613B689B7A002B3BD17B68B3F8F3
:1043300050309BB21A463B681B78DB0013440633AF
:104340005A007B68134403F580633B61BB6A3E2BD4
:1043500016D9BB6A5B097B84BB6A03F01F03002B81
:1043600002D17B8C013B7B847B8C9B029BB26FEAEE
:1043700043436FEA53439BB21A463B691A60C3E05A
:10438000BB6A5B087B84BB6A03F00103002B02D08D
:104390007B8C01337B847B8C9B029BB21A463B69EE
:1043A0001A60B1E03B685B78002B3BD17B68B3F8C7
:1043B00050309BB21A463B681B78DB001344023333
:1043C0005A007B68134403F58063BB61BB6A3E2BD4
:1043D00016D9BB6A5B093B84BB6A03F01F03002B41
:1043E00002D13B8C013B3B843B8C9B029BB26FEA2E
:1043F00043436FEA53439BB21A46BB691A6027E0F6
:10440000BB6A5B083B84BB6A03F00103002B02D04C
:104410003B8C01333B843B8C9B029BB21A46BB69AD
:104420001A6015E03B685B78012B11D17B68B3F80B
:1044300050309BB21A463B681B78DB0013440233B2
:104440005A007B68134403F580631A46BB6A136005
:104450003B685B78002B41D17B68B3F850309BB24E
:104460001A463B681B78DB00134406335A007B680E
:10447000134403F580637B61BB6A3E2B16D9BB6A8C
:104480005B09FB83BB6A03F01F03002B02D1FB8B8C
:10449000013BFB83FB8B9B029BB26FEA43436FEABA
:1044A00053439BB21A467B691A602DE0BB6A5B08D6
:1044B000FB83BB6A03F00103002B02D0FB8B0133AB
:1044C000FB83FB8B9B029BB21A467B691A601BE045
:1044D000C080FFFF80C0FFFF8080FFFF3B685B78EC
:1044E000012B11D17B68B3F850309BB21A463B6860
:1044F0001B78DB00134402335A007B68134403F536
:1045000080631A46BB6A13607A683B681B789B001D
:1045100013441B889BB223F4804323F070039CB2A6
:1045200084F480539CB284F400539CB27A683B6854
:104530001B789B001A44044B23439BB21380002337
:1045400018463437BD4690BD8080FFFF90B482B0DE
:1045500000AF786039603B681B78002B18D17A680F
:104560003B681B789B0013441B889BB24BF6BF74BF
:104570001C4084F4805484F01004A1B27A683B6833
:104580001B789B001A44204B0B439BB2138034E0F2
:104590003B685B78002B18D07A683B681B789B00DF
:1045A00013441B889BB223F4E04323F040039CB2E6
:1045B00084F010039CB27A683B681B789B001A4415
:1045C000114B23439BB2138017E07A683B681B783A
:1045D0009B0013441B889BB223F4804323F0700399
:1045E0009CB284F480539CB27A683B681B789B0031
:1045F0001A44054B23439BB2138000231846083707
:10460000BD4690BC704700BF8080FFFF90B482B071
:1046100000AF786039603B685B78002B3AD07A68ED
:104620003B681B789B0013441B889BB203F040033C
:10463000002B13D07A683B681B789B0013441B88BF
:104640009AB240F60F73134099B27A683B681B78B0
:104650009B001A442F4B0B439BB213807A683B6834
:104660001B789B0013441B889BB223F4E04323F088
:1046700040039CB284F010039CB284F020039CB2EF
:104680007A683B681B789B001A44234B23439BB2F8
:10469000138039E07A683B681B789B0013441B88C1
:1046A0009BB203F48043002B13D07A683B681B78DD
:1046B0009B0013441B889AB240F60F73134099B2C3
:1046C0007A683B681B789B001A44144B0B439BB2DF
:1046D00013807A683B681B789B0013441B889BB24D
:1046E00023F4804323F070039CB284F480539CB283
:1046F00084F400539CB27A683B681B789B001A4490
:10470000054B23439BB21380002318460837BD4650
:1047100090BC7047C080FFFF8080FFFF80C0FFFF1C
:1047200080B483B000AF78600B46FB70FB78002B41
:1047300003D17B688022A3F84C20002318460C3755
:10474000BD4680BC704780B483B000AF7860002362
:1047500018460C37BD4680BC704780B483B000AFAC
:104760007860002318460C37BD4680BC704780B483
:1047700085B000AF78600023FB607B68B3F84430FD
:104780009BB2FB60FB6818461437BD4680BC70477F
:1047900080B483B000AF78603960002318460C37CE
:1047A000BD4680BC704780B48BB000AFF860B96084
:1047B00011461A460B46FB801346BB80BB8801336B
:1047C0005B10FB6100237B620023BB6100237B61E4
:1047D00000233B62FB885B001A46FB68134403F529
:1047E00080633B62FB697B621BE0BB681B78BB613B
:1047F000BB680133BB60BB681B781B021A46BB69F0
:1048000013437B613B6A9A1C3A627A6992B21A80BE
:104810003B6A02333B62BB680133BB607B6A013B8E
:104820007B627B6A002BE0D100BF2C37BD4680BC89
:10483000704780B489B000AFF860B96011461A467D
:104840000B46FB801346BB80BB8801335B107B614A
:104850000023FB610023BB61FB885B001A46FB68F9
:10486000134403F58063BB617B69FB610EE0BB69A8
:104870001A1DBA611968BB685A1CBA608AB21A80DC
:10488000BB680133BB60FB69013BFB61FB69002B2B
:10489000EDD100BF2437BD4680BC704790B585B0D0
:1048A00000AF786039607B68002B02D03B68002B3A
:1048B00001D101235EE07A683B689A420DD1002362
:1048C00058E07B681B78002B01D1002352E07B6805
:1048D00001337B603B6801333B607B681B78FB7373
:1048E00005F0C6FB0246FB7B013313441B7803F043
:1048F0000303012B03D1FB7B03F1200400E0FC7BCD
:104900003B681B78BB7305F0B3FB0246BB7B0133EE
:1049100013441B7803F00303012B02D1BB7B20332C
:1049200000E0BB7B9C42CCD07B681B787B7305F09E
:104930009FFB02467B7B013313441B7803F0030388
:10494000012B03D17B7B03F1200400E07C7B3B68DF
:104950001B783B7305F08CFB02463B7B0133134411
:104960001B7803F00303012B02D13B7B203300E0D3
:104970003B7BE31A18461437BD4690BD80B584B022
:1049800000AF786039600023FB600023BB607B6868
:10499000002B01D1002315E07868FCF7DFFA03460D
:1049A0000133FB603B681B68F8689847B860BB68D8
:1049B000002B01D1002305E0FA687968B86805F09A
:1049C00087FBBB6818461037BD4680BD80B584B0F4
:1049D00000AF78607B681B6828209847F860FB6808
:1049E000002B04D028220021F86805F07CFBFB682E
:1049F00018461037BD4680BD80B584B000AF7860E2
:104A00000023FB6037E07B681B68FB607B68DB682A
:104A100003F48073002B08D17B689B68002B04D0C3
:104A20007B689B681846FFF7E7FF7B68DB6803F449
:104A30008073002B09D17B681B69002B05D0114BBB
:104A40005B687A681269104698477B68DB6803F4F4
:104A50000073002B09D17B681B6A002B05D0094B22
:104A60005B687A68126A10469847064B5B687868FC
:104A70009847FB687B607B68002BC4D100BF103770
:104A8000BD4680BD0800002080B400AF2E2318462C
:104A9000BD4680BC7047000090B599B000AF78600B
:104AA00039604FF000034FF00004C7E914340023CD
:104AB000BB64FFF7E9FF034687F84F300023FB652F
:104AC0003B68002B03D03B681B68002B01D10023FF
:104AD00004E10023FB659FE03B681A683B68996826
:104AE000FB6D0B4413441B782B3B3A2B00F2A48044
:104AF00001A252F823F000BFE54B0008394C000832
:104B0000E54B0008034C0008394C0008E54B000851
:104B1000E54B0008E54B0008E54B0008E54B0008B5
:104B2000E54B0008E54B0008E54B0008E54B0008A5
:104B3000E54B0008394C0008394C0008394C000896
:104B4000394C0008394C0008394C0008394C000831
:104B5000394C0008394C0008394C0008394C000821
:104B6000E54B0008394C0008394C0008394C000866
:104B7000394C0008394C0008394C0008394C000801
:104B8000394C0008394C0008394C0008394C0008F1
:104B9000394C0008394C0008394C0008394C0008E1
:104BA000394C0008394C0008394C0008394C0008D1
:104BB000394C0008394C0008394C0008394C0008C1
:104BC000394C0008394C0008394C0008394C0008B1
:104BD000394C0008394C0008394C0008394C0008A1
:104BE000E54B00083B681A683B689968FB6D0B440D
:104BF0001344197807F10802FB6D13440A461A7032
:104C000007E007F10802FB6D134497F84F201A7074
:104C100000BFFB6D0133FB65FB6D3E2B0ED83B687F
:104C2000002B0BD03B689A68FB6D1A443B685B68AD
:104C30009A42FFF451AF01E000BF00E000BF07F16E
:104C40000802FB6D134400221A7007F1480207F1B5
:104C500008031146184606F08FF9C7E91401BA6C2B
:104C600007F108039A4201D1002337E07A68D7E9B7
:104C70001434C2E906341CA3D3E90023D7E9140194
:104C8000FBF7A8FE0346002B04D07B686FF00042C0
:104C90005A6115E04FF00002154BD7E91401FBF7FC
:104CA0008FFE0346002B04D07B684FF000425A6110
:104CB00006E0D7E91401FBF7A1FE02467B685A61C2
:104CC0007B680822DA603B689B68BA6C114607F182
:104CD00008028A1A1A443B689A600123184664370E
:104CE000BD4690BDAFF300800000C0FFFFFFDF4175
:104CF0000000E0C180B584B000AF78603960002367
:104D0000FB600023BB607B68002B03D07B681B68C3
:104D1000002B01D1002386E07B685B68002B07D065
:104D20007B689A687B685B689A4201D300237AE0CB
:104D30003B68002B01DA002375E07B689A683B68CA
:104D4000134401333B607B685B683A689A4205D83C
:104D50007B681A687B689B68134464E07B681B6906
:104D6000002B01D000235EE03B68B3F1804F08D3F5
:104D70003B68002B03DB6FF00043BB6004E00023C3
:104D800051E03B685B00BB607B681B6A002B18D05E
:104D90007B681B6A7A681268B96810469847F860A1
:104DA000FB68002B35D17B68DB697A681268104696
:104DB00098477B6800225A607B6800221A600023B3
:104DC00031E07B689B69B8689847F860FB68002B06
:104DD0000DD17B68DB697A681268104698477B685A
:104DE00000225A607B6800221A6000231BE0FB68E7
:104DF000002B08D07B6819687B689B6801331A46D2
:104E0000F86805F065F97B68DB697A681268104616
:104E100098477B68BA685A607B68FA681A607B6852
:104E20009B68FA68134418461037BD4680BD90B59C
:104E300085B000AF78600023FB607B68002B13D047
:104E40007B681B68002B0FD07B681A687B689B68A7
:104E50001344FB607B689C68F868FCF77FF80346A6
:104E6000E2187B689A6000E000BF1437BD4690BD31
:104E700090B593B000AF786039600023FB637B6826
:104E800003F11804D4E90034C7E90C3400237B642F
:104E900000233B64FFF7F8FD034687F82F303B689B
:104EA000002B01D1002387E04FF000024FF00003F8
:104EB000D7E90C01FBF708FB03460C4618462146D0
:104EC0004FF000024FF00003FBF766FD0346002B96
:104ED0000AD107F114033A4A92E803001860043338
:104EE000197004237B6425E007F11400D7E90C2333
:104EF000344905F0BFF9786407F1080207F114039B
:104F00003149184605F0D6F90346012B0AD1D7E9F5
:104F100002341A462346D7E90C01FBF73DFD034650
:104F2000002B07D107F11400D7E90C23274905F01E
:104F3000A1F978647B6C002B02DB7B6C192B01DD03
:104F4000002339E07B6C013319463868FFF7D2FE45
:104F5000F863FB6B002B01D100232DE000233B64A1
:104F60001AE007F114023B6C13441B7897F82F20CA
:104F70009A4205D1FA6B3B6C13442E221A7008E05A
:104F8000FA6B3B6C134407F114013A6C0A44127833
:104F90001A703B6C01333B647B6C3A6C9A42E0D3F1
:104FA000FA6B3B6C134400221A703B689A687B6C66
:104FB0001A443B689A60012318464C37BD4690BDA1
:104FC000D8CD0008E0CD0008E8CD0008ECCD000801
:104FD00080B485B000AF78600023FB600023BB6025
:104FE0000023BB604CE07A68BB6813441B782F2B0E
:104FF0000FD97A68BB6813441B78392B09D87A68B3
:10500000BB6813441B781A46FB681344303BFB60B3
:105010002DE07A68BB6813441B78402B0FD97A685F
:10502000BB6813441B78462B09D87A68BB681344C5
:105030001B781A46FB681344373BFB6017E07A681D
:10504000BB6813441B78602B0FD97A68BB68134484
:105050001B78662B09D87A68BB6813441B781A46FC
:10506000FB681344573BFB6001E000230CE0BB6886
:10507000022B02D8FB681B01FB60BB680133BB60DD
:10508000BB68032BAFD9FB6818461437BD4680BCFC
:105090007047000080B58AB000AFF860B9607A60F0
:1050A00000237B620023FB61FB68BB61002387F860
:1050B0002330002387F82230002387F82130002393
:1050C00087F82030BA68BB69D31A052B40F3B78044
:1050D000BB6902331846FFF77BFFF861FB69B3F544
:1050E0005C4F04D3FB69B3F5604FC0F0AA80FB6945
:1050F000B3F5584F37D3FB69B3F55C4F33D2BB6977
:1051000006337B6100233B610C2387F82130BA68AA
:105110007B69D31A052B40F396807B691B785C2B47
:1051200040F093807B6901331B78752B40F08D80B4
:105130007B6902331846FFF74BFF38613B69B3F5D3
:105140005C4FC0F082803B69B3F5604F7DD2FB6954
:105150009A02424B13403A69C2F30902134303F522
:1051600080337B6204E0062387F82130FB697B6291
:105170007B6A7F2B03D8012387F823301FE07B6AEB
:10518000B3F5006F06D2022387F82330C02387F8D7
:10519000203014E07B6AB3F5803F06D2032387F802
:1051A0002330E02387F8203009E07B6AB3F5881FBD
:1051B0004DD2042387F82330F02387F8203097F866
:1051C0002330013B87F8223015E07B6ADBB203F025
:1051D0003F03DAB27B68196897F822300B4462F01B
:1051E0007F02D2B21A707B6A9B097B6297F82230E9
:1051F000013B87F8223097F82230002BE5D197F851
:105200002330012B09D97B6AD9B27B681B6897F8D8
:1052100020200A43D2B21A7007E07B6ADAB27B68B8
:105220001B6802F07F02D2B21A707B681A6897F886
:1052300023301A447B681A6097F8213009E000BFD8
:1052400006E000BF04E000BF02E000BF00E000BFD6
:10525000002318462837BD4680BD00BF00FC0F0064
:1052600080B58AB000AF786039603B681A683B68E7
:105270009B68013313447B623B681A683B689B68F8
:10528000013313443B620023FB600023FB613B6856
:105290001A683B689B6813441B78222B40F06C8192
:1052A00000233B610023BB6118E03B6A1B785C2B49
:1052B00011D13B6A01331A463B681B68D31A1A4660
:1052C0003B685B689A4280F05981BB690133BB61DE
:1052D0003B6A01333B623B6A01333B623B6A3A689B
:1052E00012689B1A1A463B685B689A4203D23B6A73
:1052F0001B78222BD9D13B6A3A6812689B1A1A464E
:105300003B685B689A4280F03B813B6A1B78222BAA
:1053100040F036813B6A3A6811683A6892680A44FC
:105320009B1A1A46BB69D31A3B613B681B693A69F1
:10533000013210469847F861FB69002B00F022818A
:10534000FB69FB60FCE07B6A1B785C2B08D07A6A07
:10535000531C7B62FB68591CF96012781A70EFE0ED
:105360000223FB753A6A7B6AD31A002B40F30C8147
:105370007B6A01331B78223B532B00F2078101A289
:1053800052F823F0115500088D5500088D5500087E
:105390008D5500088D5500088D5500088D55000865
:1053A0008D5500088D5500088D5500088D55000855
:1053B0008D5500088D550008115500088D550008C1
:1053C0008D5500088D5500088D5500088D55000835
:1053D0008D5500088D5500088D5500088D55000825
:1053E0008D5500088D5500088D5500088D55000815
:1053F0008D5500088D5500088D5500088D55000805
:105400008D5500088D5500088D5500088D550008F4
:105410008D5500088D5500088D5500088D550008E4
:105420008D5500088D5500088D5500088D550008D4
:105430008D5500088D5500088D5500088D550008C4
:105440008D5500088D5500088D5500088D550008B4
:105450008D5500088D5500088D5500088D550008A4
:105460008D5500088D5500088D5500081155000810
:105470008D5500088D5500088D5500088D55000884
:105480008D550008D55400088D5500088D5500082D
:105490008D550008E15400088D5500088D55000811
:1054A0008D5500088D5500088D5500088D55000854
:1054B0008D550008ED5400088D5500088D550008E5
:1054C0008D550008F95400088D5500080555000851
:1054D0001F550008FB685A1CFA6008221A702BE05E
:1054E000FB685A1CFA600C221A7025E0FB685A1CF3
:1054F000FA600A221A701FE0FB685A1CFA600D223B
:105500001A7019E0FB685A1CFA6009221A7013E03D
:10551000FB685A1CFA607A6A52781A700CE007F13C
:105520000C031A46396A786AFFF7B4FD0346FB7527
:10553000FB7D002B2CD000BFFB7D7A6A13447B627D
:105540007A6A3B6A9A42FFF4FEAEFB6800221A7048
:105550007B681022DA607B68FA691A613B6A3A68F4
:1055600012689B1A1A463B689A603B689B685A1CF3
:105570003B689A6001231EE000BF0AE000BF08E01C
:1055800000BF06E000BF04E000BF02E000BF00E093
:1055900000BFFB69002B03D03B685B69F869984743
:1055A0007B6A002B06D07B6A3A6812689B1A1A46FF
:1055B0003B689A60002318462837BD4680BD00BF6F
:1055C00080B588B000AF786039600023FB610023AC
:1055D0003B610023BB610023FB6000237B613B68D0
:1055E000002B01D10023D7E07B68002B11D10321D0
:1055F0003868FFF77FFB38613B69002B01D100233E
:10560000CAE03B69664A1188927819809A70012332
:10561000C2E07B68FB611CE0FB691B780D2B05DC9D
:105620000C2B07DA083B022B08D803E0222B01D011
:105630005C2B03D17B6901337B6107E0FB691B783D
:105640001F2B02D87B6905337B6100BFFB690133E7
:10565000FB61FB691B78002BDED1FA697B68D31AEA
:105660001A467B691344FB60FB68033319463868AC
:10567000FFF740FB38613B69002B01D100238BE031
:105680007B69002B17D13B6922221A703B690133D9
:10569000FA687968184604F01BFDFB6801333A6923
:1056A000134422221A70FB6802333A691344002221
:1056B0001A70012370E03B6922221A703B690133A2
:1056C000BB617B68FB6156E0FB691B781F2B0CD923
:1056D000FB691B78222B08D0FB691B785C2B04D05C
:1056E000FB691A78BB691A703FE0BB695A1CBA6142
:1056F0005C221A70FB691B780C2B1BD00C2B06DC70
:10570000092B23D00A2B19D0082B0FD022E0222BF3
:1057100008D05C2B02D00D2B14D01BE0BB695C229F
:105720001A7022E0BB6922221A701EE0BB69622255
:105730001A701AE0BB6966221A7016E0BB696E2205
:105740001A7012E0BB6972221A700EE0BB697422F3
:105750001A700AE0FB691B781A461249B86904F00E
:1057600089FDBB690433BB6100BFFB690133FB6189
:10577000BB690133BB61FB691B78002BA4D1FB68BB
:1057800001333A69134422221A70FB6802333A69E2
:10579000134400221A70012318462037BD4680BDED
:1057A000F4CD0008F8CD000880B582B000AF786075
:1057B00039607B681B6939681846FFF701FF0346AB
:1057C00018460837BD4680BD80B483B000AF78600E
:1057D0007B68002B03D07B681B68002B06D100235D
:1057E00021E07B689B685A1C7B689A607B68002B71
:1057F0000DD07B689A687B685B689A4207D27B68A9
:105800001A687B689B6813441B78202BE9D97B6856
:105810009A687B685B689A4204D17B689B685A1ED1
:105820007B689A607B6818460C37BD4680BC704721
:1058300080B582B000AF78607B68002B07D07B68B2
:105840001B68002B03D07B689B68002B01D00023D2
:105850001CE07B68002B18D07B689B681A1D7B6856
:105860005B689A4211D27B681A687B689B68134414
:1058700003220849184604F049FD0346002B04D1D1
:105880007B689B68DA1C7B689A607B6818460837DF
:10589000BD4680BD00CE000880B58EB000AFF86078
:1058A000B9607A6007F1180300221A605A609A60A2
:1058B000DA601A615A619A6100237B63414B0022CE
:1058C0001A60404B00225A60FB68002B43D0FB68F3
:1058D000BB61F868FBF742FB03460133FB61002321
:1058E0003B62394A07F1280307CA83E807003648B4
:1058F000FFF76CF878637B6B002B2ED007F1180351
:105900001846FFF795FF03461846FFF75DFF03466D
:105910001946786B00F0FCF80346002B1FD07B681B
:10592000002B0ED007F118031846FFF74DFF3A6A17
:10593000FB699A4215D2BA693B6A13441B78002B63
:105940000FD1BB68002B04D0BA693B6A1A44BB680C
:105950001A607B6B31E000BF04E000BF02E000BFD3
:1059600000E000BF7B6B002B02D0786BFFF744F8A0
:10597000FB68002B20D0FB683B6100237B613A6A07
:10598000FB699A4202D23B6A7B6105E0FB69002B0E
:1059900002D0FB69013B7B61BB68002B04D03A69F4
:1059A0007B691A44BB681A60064B1A4607F110035C
:1059B00093E8030082E80300002318463837BD4609
:1059C00080BD00BF680300200800002080B582B0C1
:1059D00000AF7860002200217868FFF75DFF034682
:1059E00018460837BD4680BD80B58EB000AFF86060
:1059F000B9607A6000237B6307F110032422002141
:105A0000184604F070FB7B681B68384A1268104621
:105A1000984703463B61354B1B687B61BB687B62E3
:105A20007A6807F1280307CA83E807003B69002B5F
:105A300040D007F110031946F86800F055F9034605
:105A4000002B39D007F110031846FFF7F0F97B68F7
:105A50009B68002B0DD07B689B683869BA6901325E
:105A60001146984778637B6B002B27D000233B615E
:105A70001EE07B681B68BA6901321046984778635C
:105A80007B6B002B1CD03969BB695A1C7B69934224
:105A900028BF13461A46786B04F01AFBBB697A6B71
:105AA000134400221A707B685B683A691046984775
:105AB0007B6B16E000BF04E000BF02E000BF00E027
:105AC00000BF3B69002B04D07B685B683A691046D5
:105AD00098477B6B002B03D07B685B68786B98479B
